:020000040800F2
:100000005005002045010008370C00087109000860
:10001000350C0008D1010008191F0008000000007D
:100020000000000000000000000000005115000862
:10003000B906000800000000DB100008691C000879
:10004000451F0008D91000086B1C00088B1300081E
:100050008D070008F11200080507000809070008CD
:100060000B0700080D0700080F070008A103000890
:10007000A3030008A5030008A7030008A9030008BC
:10008000AB030008AD030008CD010008E51D000822
:10009000151F0008DD010008DF0100081107000836
:1000A0006D1C0008731C0008711C00086F1C000800
:1000B000751C0008771C0008791C000875090008E9
:1000C0007309000879090008770900089B140008E3
:1000D0009D1400088D1C0008A51C0008A71C000822
:1000E0000707000889130008B11D0008811C0008DB
:1000F000871C0008851C0008831C0008CF0100082D
:10010000BD070008991400087B1C00089F14000814
:10011000891C00088B1C00087D1C00087F1C00083F
:10012000AF030008B1030008B3030008B5030008DB
:10013000DFF80CD000F00AF800480047651F0008FF
:10014000500500200048004731010008064C074DCB
:1001500006E0E06840F0010394E807009847103497
:10016000AC42F6D3FFF7E8FF14230008342300085D
:1001700070B501EB020410F8015B15F0070301D123
:1001800010F8013B2A1106D110F8012B03E010F8FA
:10019000016B01F8016B5B1EF9D12B0705D400231D
:1001A000521E0FD401F8013BFAE710F8013B02F1AF
:1001B0000202A1EB030303E013F8015B01F8015B0A
:1001C000521EF9D5A142D6D3002070BD70477047AA
:1001D000FEE7C1B2000A40EA01207047704770474D
:1001E0002DE9F84FDFF844A14BF68F7648F6BF773C
:1001F0004D4D40F68F794D4C48F60F780AF1440A80
:10020000DFF82CB130E000BF47F6FF720A600188CA
:10021000484A11F00F01117030D004EB81000168E1
:1002200089B2009109040CD50168134689B201EA2C
:10023000090101604048197800EB810050F8040C76
:100240008047009800060FD53A48017804EB8101F9
:100250000A6892B202EA08020A603849007801EBA3
:10026000800050F8040C8047DAF8002051465846C8
:10027000ABF800201204C7D4BDE8F88F2168C1F3A1
:100280000131090329802168C1F301114FEA0111ED
:100290006980216889B2314081F400512160216870
:1002A00089B2394081F0200121600088C00603D561
:1002B000206880B2010618D5206880B200EA0800E4
:1002C000206000F05BFB23E0890401D580F400503E
:1002D00020602068698880B23840CA0621D4890627
:1002E00001D580F020002060C6E7010507D5206811
:1002F00080B200EA0900206001F0F4FA08E000048E
:10030000B2D5206880B200EA0900206000F0B6FE95
:100310002068298880B23040CA04D5D580F4805046
:10032000D2E780F01000DAE712010020005C004004
:100330001E000020000100203C00002020000020C2
:10034000074901EB80000168490407D5016848F6B8
:100350008F7289B2114041F4804101607047000002
:10036000005C0040074901EB80000168490607D5A1
:10037000016848F68F7289B2114041F04001016076
:1003800070470000005C0040044901EB80000168F8
:1003900048F68F6289B2114001607047005C0040EE
:1003A0007047704770477047704770477047704795
:1003B00070477047704700002DE9F05FDFF89C90B0
:1003C000DFF89C804FF0300AD9F8001001F11005D9
:1003D000088A0E7A08B9042E04D0AC88A04216D838
:1003E000042615E01F490878012804D007261021AB
:1003F000A8F800102CE01C4A002012681B4B92B297
:1004000003EB42025060A8F800A0087020E002262A
:10041000844200D90446A0B2A968074688478346AB
:10042000002000F073FA01463A46584601F076FD86
:100430003946002001F0B4F928880D49001B2880B6
:10044000688820446880A8F800A04FF440500880D5
:10045000D9F800000672BDE8F09F000004010020FA
:1004600014010020FC000020505C004000600040AF
:10047000120100202DE9F047234EDFF890904FF055
:100480003008346834F8100FA168B1B108B3A588FA
:10049000854200D90546A8B207468847824620888B
:1004A000401B2080608828446080002000F01EFAF5
:1004B00001463A46504600F001FE208848B11449F2
:1004C0004FF4405008800021084601F069F9A9F86E
:1004D00000802088A188884201D3032001E020B158
:1004E000052031680872BDE8F0873168062008727F
:1004F000084900200968084A89B202EB41014860B6
:10050000A9F80080EFE7000004010020140100209A
:1005100012010020505C0040006000402DE9F041D5
:100520005C4C5D4D09262068002729684278062A20
:1005300005D0AAB1082A4BD00A2A4ED069E0027829
:10054000520666D18078012804D0022804D00328FE
:1005500004D05EE0C96954E0096A52E0496A50E09B
:100560004288A2BBC288022A53D102797ABB0278A0
:10057000530601D1838833B102F07F02012A04D0EF
:10058000022A0CD045E045493BE08A6940790021C8
:100590009047E0B92068807A0028F4D139E04179A9
:1005A00001F00F0001F070020B063D4951F82010D8
:1005B00003D5C1F30111090102E0C1F301310903BF
:1005C000384B1B78834224D90AB90029DBD120E0BB
:1005D000007840061DD1344913E0027802F07F0212
:1005E000012A16D1827AA2B1428892B9027982B9DF
:1005F000C288012A0DD18A6940790021904740B90B
:100600002A4931B120684782816100208847002053
:1006100006E029682068096940788847032808D0DF
:1006200021680A8AA2F57F43FF3B05D10E72BDE81F
:10063000F08120680672FAE7022808D03AB10878FB
:10064000000620D5C888824205D9088213E04FF001
:1006500008000872EBE70ED22868154B90F82C00C2
:10066000824201D21F7006E0B2FBF0F400FB1420BE
:1006700008B901201870286890F82C008882BDE81D
:10068000F041FFF799BE032008720A490003088071
:10069000CDE700000401002008010020991A00089D
:1006A000005C0040580000202D1A0008711A000854
:1006B000FC00002012010020704700000849498812
:1006C00048434FF0E02148610020886101220A611F
:1006D0000A69D30701D0D203FAD50861886170474F
:1006E0002A0100204FF0E0210A6922F004020A6189
:1006F0000349C0084FF47A7208705043488070472D
:100700002A01002070477047704770477047704754
:1007100010B50CA001F024FD4FF48074204600F0C9
:100720001FF800280CD00A480068407A800602D5DD
:10073000012000F02BFE2046BDE8104000F00AB872
:1007400010BD000045584954395F350A00000000CB
:1007500004010020014908607047000014040140B2
:10076000054A00211268054B02401B6803421CBF6A
:10077000002A01210846704700040140140401408A
:100780000149032008607047F40000207047000012
:1007900004490A6822F010020A600A6810430860DF
:1007A000704700000020024003490A6802F0380246
:1007B00010430860704700000020024070472DE998
:1007C000F001CB78002203F00F0C13F0100F1CBFC8
:1007D0008B7843EA0C0C0B884FF00F0613F0FF0FD9
:1007E0004FF0010518BF046819D00F8805FA02F30D
:1007F0001F409F420FD1970006FA07F824EA080429
:100800000CFA07F73C43CF78282F08BF436102D08A
:10081000482F08BF0361521C082AE6D304600A88E7
:10082000FF2A87BF44680022BDE8F001704702F14B
:1008300008030F8805FA03F31F409F420FD197006A
:1008400006FA07F824EA08040CFA07F73C43CF78C5
:10085000282F08BF4361CF78482F08BF0361521C7F
:10086000082AE4D34460BDE8F001704770B4DFF8B3
:1008700058C0DCF804204FF4401333EA00054FEA77
:1008800050534FEA031386B2C0F3034406FA03F34E
:100890000BD010F4801F0FBF22EA03000320A040FA
:1008A00022EA000040F0706007E022F07060DCF89F
:1008B000042022F07062CCF80420002918BF1843ED
:1008C000CCF8040070BC70470000014002460020D4
:1008D00092680A4218BF0120704741617047016168
:1008E0007047002A14BF01614161704705490968DA
:1008F00089B201EBC000044901EB4000806880B27E
:1009000070470000505C00400060004004490968E6
:1009100089B201EBC000034951F8100080B2704762
:10092000505C0040006000400F4810B50168001D99
:100930000268001D0029036815D00C480C0A81705C
:1009400004710C0C8471090E01728272110A017318
:10095000110C8173110E01748374190A0175190C3D
:100960008175190E017610BDE8F7FF1F0100002008
:10097000FEE77047704770477047000010B5134C92
:100980002068017A022904D0042902D0062905D062
:1009900015E0FFF711FD2068007A11E04178052984
:1009A00009D10178490606D1C07800F077FE0848E1
:1009B0000068006A80470748006880688047082010
:1009C00021680872BDE8104000F088BB04010020D7
:1009D0000C01002008010020124910B50A68062801
:1009E000117801F07F0103D1012901D1537913B1AD
:1009F00021290AD013E09078222802D0212802D0A1
:100A00000DE0094904E0094902E0032807D108493B
:100A100029B10020916150828847002010BD02203A
:100A200010BD000004010020750A00084D0A0008EE
:100A3000590A0008014901F00DB8000068000020C3
:100A4000014901F007B8000060000020014901F0F1
:100A500001B800007800002008B10448704704493C
:100A60000120096808820020704700005C00002017
:100A700004010020014900F0EDBF000070000020DB
:100A800005490968C978042901D900207047034A3B
:100A900002EBC10100F0DEBF04010020B000002025
:100AA00009B9002800D002207047000006490968F3
:100AB000097801F07F01212901D10B2801D0022002
:100AC000704700F065B8000004010020234810B50D
:100AD000006800218172C1722149C97941720020E8
:100AE00000F0D4FD4FF40071002000F08BFE1021C7
:100AF000002000F063FE1821002000F0EDFD5821D9
:100B0000002000F03DFE0020FFF73EFC154890F865
:100B10002C10002000F0F0FD002000F023FE4FF428
:100B2000C061012000F06EFE4FF48071012000F0E2
:100B300027FE0421012000F033FE0021012000F0F7
:100B4000FBFD2021012000F039FE0749012008604B
:100B5000BDE81040002000F0A1BD0000040100200D
:100B60001E22000880000020F40000200348807A44
:100B7000002802D00249052008607047300100209B
:100B8000F40000200149042008607047F4000020B0
:100B9000034804490068C0780860002070470000DE
:100BA000040100205C0000207047704710B50DA0C4
:100BB00001F0D6FAFFF7B8FE0E48002400688472F0
:100BC00000F0AEFA0C4804600C494FF43F40088036
:100BD0000949091F08600A480460BDE8104009A0DF
:100BE00001F0BEBA4A6F79737469636B5F696E69AD
:100BF000740A000004010020445C00401001002041
:100C0000F40000204A6F79737469636B5F696E69E1
:100C1000745F6F75740A00000448817A044809B152
:100C2000052100E001210160704700003001002033
:100C3000F4000020FEE77047704700001FB50FA1C9
:100C40000522D1E90001CDE9020102A9302000F01E
:100C5000C1F805226946102000F07CF800206946A2
:100C60000A5CA52A03D1401CC0B20528F8D3052888
:100C700002D0002004B010BD0120FBE7A5A5A5A56A
:100C8000A5000000F0B587B00121092000F06AFA44
:100C90000121880300F05AFA4FF46040ADF80000DB
:100CA00001248DF802401820284F8DF80300694672
:100CB0003846FFF784FDE002ADF800008DF80240F1
:100CC00010258DF8035069463846FFF778FD260356
:100CD000ADF800608DF802408DF803506946384643
:100CE000FFF76DFDA002ADF800008DF8024048202E
:100CF0008DF8030069463846FFF761FD0122314651
:100D00003846FFF7EEFD0020ADF804004FF4827185
:100D1000ADF80610ADF80C00ADF808006102ADF8B2
:100D20001050ADF80A00ADF812000720084CADF8DD
:100D30000E10ADF8140001A9204600F0C5FB0121FA
:100D4000204600F0ADFB07B0F0BD0000000C0140F4
:100D5000003800402DE9F047DFF8409004460E4689
:100D600015464FF48058002241464846FFF7B9FD2A
:100D7000204600F0D3FB0746002405E0FF2000F0EA
:100D8000CDFB3055641CE4B2AC42F7D3012241469E
:100D90004846FFF7A6FD3846BDE8F087000C014045
:100DA00070B50B4E04464FF480550022294630465C
:100DB000FFF797FD204600F0B1FBFF2000F0AEFBEF
:100DC0000446012229463046FFF78BFD204670BDC0
:100DD000000C01402DE9F047134F04460D4616461E
:100DE00000224FF400613846FFF77BFD4FF4805935
:100DF000002249463846FFF774FD204600F08EFB7E
:100E00008046002406E000BF15F8010B00F086FBC9
:100E1000641CE4B2B442F7D3012249463846FFF7D6
:100E200060FD4046BDE8F087000C01402DE9F0412F
:100E30000C4F05460C464FF480560022314638468A
:100E4000FFF74FFD284600F069FB0546204600F0FD
:100E500065FB012231463846FFF743FD2846BDE8D1
:100E6000F0810000000C014010B500224FF4006139
:100E70001048FFF736FD05220F492A20FFF7AAFF89
:100E800001212120FFF7D2FF01212220FFF7CEFF11
:100E900001212520FFF7CAFF0A213120FFF7C6FFF5
:100EA0000F212620FFF7C2FF0F212020FFF7BEFFF2
:100EB000012010BD000C01400D23000870B5124C3C
:100EC00005460122D1022046FFF70BFD26153146CB
:100ED0002046FFF7FBFC0028F9D10720FFF760FF51
:100EE000044601462720FFF7A1FF60060AD50A2223
:100EF00029466120FFF72EFFFF21E220FFF796FF32
:100F0000002070BD012070BD000C014030B4C278DB
:100F1000017801234FF0E02C02B3164A12680F2526
:100F200002F4E062C2F5E062120AC2F1040425FA9A
:100F300002F2457805FA04F485782A4022430E4CE3
:100F400012010A55007800F01F0103FA01F140096F
:100F50000CEB8000C0F8001130BC704701F01F009E
:100F600003FA00F049090CEB8101C1F8800130BCA3
:100F7000704700000CED00E000E400E0034940F0A1
:100F8000FD7040F080600860704700000CED00E0EC
:100F900021F07F0121F0604108430149086070475A
:100FA00008ED00E070B5304D2868017844784A06B5
:100FB00006D001F07F0001282BD002282ED038E087
:100FC000092C06D0052C07D0032C0ED0012C17D0ED
:100FD0002FE000F0A7FD2BE0C1787F2931D8817880
:100FE00079BB818869BB807A2AE0C178012920D148
:100FF0008188F1B9407A80061BD500F0AFFD17E07B
:10100000C178012915D1818899B9407A80060AD41E
:101010000FE00B2C0DD100F0F3FD09E0012C02D004
:10102000032C03D005E000F091FC01E000F0A8FDE6
:1010300058B10E4800684169E0B28847032802D0E1
:1010400018B108200DE009200BE0094A0620002114
:101050001268084B92B203EB42025160064A3021FB
:1010600011802968087270BD040100200801002069
:10107000505C0040006000401401002010B50D4C91
:101080002068007A032804D0052802D0072805D05C
:1010900008E0FFF7EFF92068007A04E006480068EE
:1010A000C0688047082021680872BDE8104000F041
:1010B00015B800000401002008010020054B521C57
:1010C000520803EB410104D008C920F8023B521E2C
:1010D000FAD1704700600040704770470C4810B567
:1010E00090F82C10002000F007FB0A480068007AF6
:1010F000082802D0092809D006E007494FF480509B
:101100000880064910200880002010BD012010BD75
:1011100080000020040100201201002014010020A2
:1011200010B5012000F052FE0648012101600021A7
:10113000054A0160031D19604FF4E0511180016000
:10114000002010BD405C004010010020044A00292E
:10115000D16914BF084321EA0000D0617047000044
:1011600000100240044A0029916914BF084321EA93
:101170000000906170470000001002400C480168B8
:1011800041F00101016041680A4A11404160016873
:1011900021F4102121F080710160016821F4802187
:1011A0000160416821F4FE014160002181607047C7
:1011B000001002400000FFF825494A6812F00C03B5
:1011C000244A18BF042B01D0082B01D0026014E080
:1011D0004A68022302F4701203EB92424B6813F444
:1011E000803F03D04B6813F4003F03D01A4B5A439F
:1011F000026002E0174B5A4302604A68174B02F044
:10120000F00212099A5CD0F800C02CFA02F2426097
:10121000D1F804C00CF4E06C4FEA1C2C13F80CC09D
:1012200022FA0CFCC0F808C0D1F804C00CF4605CD1
:101230004FEADC2C13F80C30DA40C2604968084BE6
:1012400001F44041890B595CB2FBF1F10161704737
:101250000010024000127A0000093D001A0100202F
:1012600016010020002243090949012B08BF096823
:1012700003D0022B0CBF096A496A00F01F0001234A
:1012800003FA00F0084218BF012210467047000020
:10129000001002400248406800F00C007047000057
:1012A0000010024003494A6822F0F00210434860EF
:1012B00070470000001002400C490A6822F4803296
:1012C0000A600A6822F480220A60B0F5803F04BFF9
:1012D000086840F4803006D0B0F5802F06BF08685B
:1012E00040F4A020704708607047000000100240E2
:1012F0007047000003494A6822F4E06210434860E6
:10130000704700000010024003494A6822F460520E
:1013100042EAC00048607047001002400149086678
:101320007047000000004242034A5368084323F418
:101330007C131843506070470010024003494A680C
:1013400022F0030210434860704700000010024082
:101350000149086070470000D8004242094B002153
:1013600000201A6812F4003F18BF0120491C10B970
:10137000B1F5A06FF4D1186810F4003018BF012047
:1013800070470000001002407047704770B51C4C59
:10139000072800D020702178062604251948062940
:1013A0002CD2DFE801F00306090E162000F02CF81D
:1013B00024E000F029F80AE0022060700320207089
:1013C00070BD6078401E607060780028F8D125708C
:1013D00070BD016889B241F01001016005202070E4
:1013E0000A20607070BD6178491E617061780029C3
:1013F000F8D1016889B221F010010160267070BD3A
:10140000F9000020405C004010B5064C206880B216
:1014100020F004002060FFF7FFFB4FF43F40206006
:1014200010BD0000405C0040C0F3072210B500145E
:1014300009B20C2A2FD2DFE802F02E062E080A1479
:10144000171B1E212427002207E0012200E00222B0
:1014500000F0B6F8002211461046BDE8104000F03A
:10146000AFB80022132101E00022042101200EE088
:1014700000220821FAE700223E2107E0002229216C
:1014800004E000224B2101E000224E210020BDE8B3
:10149000104000F05EB810BD70477047704770474D
:1014A0000029018814BF41F0400121F04001018072
:1014B00070470246002012890A4218BF0120704777
:1014C000808970478181704710B402880B88B1F819
:1014D00002C0CC8843EA0C03B1F804C002F44152C4
:1014E0004CEA040C43EA0C03B1F808C043EA0C03CD
:1014F000B1F80AC043EA0C03B1F80CC043EA0C038C
:10150000B1F80EC043EA0C031A430280828B22F426
:1015100000628283098A018210BC704770B50B4C4F
:10152000054602212046FFF7C4FF0028F9D02946CE
:101530002046FFF7C7FF01212046FFF7BAFF00282A
:10154000F9D02046FFF7BCFFC0B270BD00380040A4
:1015500070471FB50024009401238DF800308DF8EA
:1015600001000194029403948DF803108DF8042077
:101570001846FFF7CBF901460922684600F0CEFC79
:101580000921012000F00CF9012000F02DF9322092
:10159000FFF794F88DF801408DF803408DF8054071
:1015A0000120FFF7B3F901460922684600F0B6FCB6
:1015B0000921012000F0F4F8012000F015F91FBD09
:1015C0002DE9FC5F041E4FF00000009001904FF0E9
:1015D00002008DF800000D468DF8012001DB204649
:1015E00000E06042002D00DA6942884201DD2046B9
:1015F00000E02846002801DA404200B20A2190FBB0
:10160000F1F006B294FBF6F04FFA80F895FBF6F095
:101610004FFA80F9002708F0FF0B09F0FF0A17E0E6
:101620008DF802B08DF803A00120FFF76FF9014695
:101630000522684600F072FC0521012000F0B0F898
:10164000012000F0D1F81420FFF738F87F1CFFB21A
:10165000B742E5DB08FB16408DF8020009FB165087
:101660008DF803000120FFF751F901460522684675
:1016700000F054FC0521012000F092F8012000F058
:10168000B3F81420FFF71AF8BDE8FC9F024920F0D8
:101690000700086070470000505C0040F0B50C493E
:1016A0000C4E48F68F770A78002108E0CBB206EBA3
:1016B00083042568ADB23D401D432560491C91421D
:1016C000F4D3044940F080004C310860F0BD0000C4
:1016D00058000020005C0040054A21F0010112681A
:1016E00092B202EBC000034A02EB400081607047F7
:1016F000505C0040006000400D4A12683E2992B2E2
:1017000002EBC0000B4A02EB400209D94809C906A6
:1017100001D1401E80B24FF4004141EA802005E033
:101720004808C90701D0401C80B280021060704791
:10173000505C00400C600040094A02EB80021068D7
:101740004BF68F7380B200EA0300CB0401D580F41E
:101750008050890401D580F400501060704700006B
:10176000005C0040054901EB800108684BF68F7270
:1017700080B2104080F4405008607047005C004028
:10178000054A21F00101126892B202EBC000034A3F
:1017900042F8101070470000505C004000600040AC
:1017A000044A126892B202EBC000034A02EB400006
:1017B00041607047505C004000600040094A02EB05
:1017C0008002106848F6BF7380B200EA0300CB06BF
:1017D00001D580F01000890601D580F0200010604E
:1017E00070470000005C0040054901EB800108687B
:1017F00048F6BF7280B2104080F030000860704739
:10180000005C0040054A02EB8000026848F68F1336
:1018100092B21A400A43026070470000005C004028
:1018200038B5FFF7ABFC4FF480342046FFF744FD9A
:10183000FFF794FD23490128087023D11020FEF7FB
:10184000A7FF0220FEF7B0FF0020FFF72BFD0020CE
:10185000FFF75AFDA011FFF74DFD4FF4E0112046B0
:10186000FFF762FD0120FFF759FD3920FFF7FAFC71
:101870000028FAD00220FFF761FD00BFFFF70AFD44
:101880000828FBD101210807FFF760FC012144F281
:101890000C00FFF767FC01210820FFF763FC4FF401
:1018A0008070ADF8000003208DF8020014208DF840
:1018B000030069460448FEF782FF00210348FEF753
:1018C000D5FF38BD00000020000C014000023000B0
:1018D00010B50020FFF73CFD0121BDE81040C80510
:1018E000FFF734BC70B516480068174D81B2154833
:1018F00000EB4101896889B200EB41042868017A54
:1019000009290FD02178017061784170A088FEF715
:1019100060FC296848802089FEF75BFC2968888084
:10192000A089C880286801210172C08828B1FEF70B
:10193000F5FDBDE87040FFF7D1BBFFF733FBF8E7DB
:10194000505C0040006000400401002070B5324847
:101950000168087810F07F0002D0022805D059E015
:10196000487A00F0DF00487245E04888002851D1ED
:101970000879E8BB4A792A4C22F080001506274BEB
:1019800054F8205003D5C5F301152D0102E0C5F32D
:1019900001352D031E78034686423BD945B3897A2B
:1019A00031B311060ED554F82010C1F301110129ED
:1019B0001BD1D8B20446FEF7D5FC30212046FFF7F4
:1019C000FDFE12E004EB80052968C1F30131012915
:1019D0000BD14BF68F7680B1D8B2FEF7B1FC2868F8
:1019E00080B2304080F4405028600E48006800E02B
:1019F00010E040698047002070BD0B4890F82C1023
:101A00000020FFF779FE206880B2304080F440501B
:101A10002060EAE7022070BD040100205800002089
:101A2000005C00400C0100208000002010B5074C35
:101A300030B1074800680068804720680A3010BD50
:101A4000216801200882002010BD00000401002050
:101A50000C010020054A13685A8A10B10868104426
:101A600070478888801A188200207047040100207F
:101A700010B5074C30B1074800688068804720687F
:101A80000C3010BD216801200882002010BD00002C
:101A9000040100200C0100201E4910B5096860B146
:101AA0001D48002202800A7853060AD002F07F0205
:101AB000012A18D0022A18D001E002200882002052
:101AC00010BD497A8A0603D5027842F002020270FC
:101AD000490603D5017801F0FE0102E0017841F0EA
:101AE0000101017010E00C4810BD4A7902F00F01AD
:101AF00013060A4A52F8211002D5C1F3011101E080
:101B0000C1F301310129E9D0054800680069804727
:101B1000E9E7000004010020FE000020005C004016
:101B20000C0100200A4810B500680A4AC1785278B2
:101B3000914203D882780AB982880AB1022010BD86
:101B400081720548006840688047002010BD000091
:101B500004010020580000200C010020064810B5A8
:101B60000068417A41F02001417204480068C06970
:101B70008047002010BD0000040100200C0100205F
:101B800070B51B4803681B48597921F0800500EBAC
:101B900085000C06046821F0800203D5C4F301140B
:101BA000240102E0C4F301342403134D2D7895423F
:101BB0000FD95A886AB964B19A7A52B109060029D4
:101BC000016889B207DA48F6BF72114081F010014E
:101BD00006E0022070BD4BF68F72114081F48051F7
:101BE00001600648006880698047002070BD0000E1
:101BF00004010020005C0040580000200C0100207F
:101C000010B50E4C0E4A20681268C178926940796E
:101C1000904721688A7A22B118B9087908B988787A
:101C200008B1022010BD07480068C06880472068DE
:101C30004179C172C1780173002010BD04010020F8
:101C4000080100200C0100200648016889B241F01B
:101C500008010160016889B241F004010160FEF7EA
:101C60008FBD0000405C0040704770477047704770
:101C700070477047704770477047704770477047AC
:101C800070477047704770477047704708B5044801
:101C900000F07AF88DF80000684600F061FA08BD9F
:101CA00000380140704770470029818914BF41F412
:101CB000005121F4005181817047024600201288B2
:101CC0000A4218BF01207047C1F3421301F01F01FF
:101CD0004FF0010C0CFA01F1012B08BF0C3003D0BE
:101CE000022B0CBF10301430002A026814BF1143BD
:101CF00022EA01010160704730B50446008A85B0D0
:101D00000D464CF6FF710840E98808432082A089FF
:101D10004EF6F3110840A9882A8911436A891043B5
:101D20000843A081A08A4FF6FF410840A9890843D3
:101D3000A0826846FFF740FAA4F18040B0F59C30DD
:101D40000CBF0398029800EBC00101EB001029685A
:101D50000C4A8900B0FBF1F0A2FB003149090901EE
:101D60000B096FF0180C03FB0CF300EB830032231C
:101D700003EB0010A2FB0020C0F3431008432081B6
:101D800005B030BD1F85EB518088C0F30800704757
:101D9000C1F30801818070474FF4E13101600021F7
:101DA0008180C18001810C224281818170470000C5
:101DB00010B504A000F0D4F9BDE810404FF4802025
:101DC000FEF7C8BC57616B6555500A00044A0028ED
:101DD0004FF48071104601D0FEF77FBDFEF77FBD46
:101DE000000C0140704700000648054902220160CE
:101DF0000A72064A0449C0E9011208680047000057
:101E0000300100200401002080000020D0000020CC
:101E100008B500214FF00060FFF7BAF84FF4C0603A
:101E2000FFF7ACF814208DF8000000208DF80100B9
:101E30008DF8020001208DF803006846FFF766F870
:101E400025208DF8000002208DF801006846FFF77C
:101E50005DF808BD70B52A4E30682A4C60806088F5
:101E6000294D29880840400505D54FF6FF303060E0
:101E7000264840688047618828880140890402D547
:101E80004DF6FF71316061880140C80405D54EF6FA
:101E9000FF7030600020FFF779FA608829880840D9
:101EA00000050BD51A48007810B1FFF7CDFE02E00F
:101EB0000220FFF76BFA4FF2FF70306061882888CC
:101EC0000140890506D54FF6FF513160217801F1B7
:101ED00001012170618801EA0001C80505D54FF6AE
:101EE000FF6030600720FFF751FA608829880840BA
:101EF000000403D5BDE87040FEF772B970BD000064
:101F0000445C00401C0000201001002080000020E4
:101F1000F8000020FFF79EBFFEE70000084B10B559
:101F2000521C520803EB410108D003784478801C0E
:101F300043EA042321F8043B521EF6D110BD0000F1
:101F400000600040704702E008C8121F08C1002A64
:101F5000FAD170477047002001E001C1121F002A2A
:101F6000FBD170470EB50124FFF75AFC4820FEF75D
:101F7000B9FB00F0ABF825A000F0F2F8FFF748FF3E
:101F800027A000F0EDF8FFF7A3FC2BA000F0E8F885
:101F9000FFF72AFF2DA000F0E3F8FEF773FE30A054
:101FA00000F0DEF8FEF74AFE60B132A000F0D8F88B
:101FB0006420FEF783FBFEF757FF32A000F0D0F855
:101FC000344D06E034A000F0CBF86420FEF776FB39
:101FD000E8E728680528FCD11CB134A000F0C0F85F
:101FE00000246846FEF76AFF0028F2D132A000F014
:101FF000B7F8694634A000F0C9F808A000F0B0F8BE
:102000009DE80700FFF710FAE3E7000053797374C7
:10201000656D20636F6D706C657465640A00000007
:10202000496E746572727570747320636F6D706C35
:10203000657465640A000000555342436C6F636B1E
:1020400020636F6D706C657465640A005553425F60
:10205000496E697420636F6D706C657465640A0005
:102060007468697320697320322E344720696E6961
:10207000740A0000636F6E6E656374206F6B200AD4
:1020800000000000456E746572205265764D6F64E5
:10209000650A0000F4000020636F6E6E65637420B3
:1020A0006661696C6564200D0A000000636F6E6EE6
:1020B0006563746564000000726563656976652018
:1020C000446174613A0000002558000030B585B0C5
:1020D000012144F20500FFF745F84FF40070ADF818
:1020E000100018208DF813001B4D03248DF81240AA
:1020F00004A92846FEF763FB2815ADF8100004205C
:102100008DF813008DF8124004A92846FEF757FBFE
:102110006846FFF741FE4FF4E13000900020ADF833
:102120000400ADF80600ADF80800ADF80C000C2076
:102130000A4CADF80A0069462046FFF7DDFD012193
:102140002046FFF7B1FD012240F225512046FFF75E
:10215000BBFD05B030BD0000000801400038014063
:1021600070B50446084D09E0641C2846FFF710FED0
:1021700080212846FFF7A1FD0028F9D02178002909
:10218000F2D1012070BD00000038014070B5064654
:102190000C461D4D0FE03078252802D17078582864
:1021A0000ED0641C2846FFF7F3FD80212846FFF778
:1021B00084FD0028F9D021780029ECD1012070BDE0
:1021C00008090A2801D3373000E03030C1B2284670
:1021D000FFF7DEFD80212846FFF76FFD0028F9D0CC
:1021E00014F8010B00F00F000A2801D3373000E08B
:1021F0003030C1B22846FFF7CBFD80212846FFF7DB
:102200005CFD0028F9D0D6E7003801401201000239
:10221000000000408304105700020102030109027C
:102220002900010100E0320904000002030101005D
:102230000921000100012279000705810310002017
:102240000705010310002005010906A1018501050C
:102250000719E029E7150025019508750181029508
:10226000017508810395067508150025FF050719F6
:1022700000296581002501950575010508190129C9
:10228000059102950175039103C005010902A101A1
:1022900085020901A100050919012903150025017D
:1022A00095037501810295017505810305010930CA
:1022B000093109381581257F750895038106C0C04D
:1022C000040309042603530054004D006900630011
:1022D00072006F0065006C0065006300740072009E
:1022E0006F006E006900630073001E03530054000A
:1022F0004D003300320020005500530042007300AF
:102300007400690063006B00344310100134431003
:1023100010010000342300080000002030010000FC
:1023200070010008BC2300083001002020040000D8
:10233000561F000811141A03531254124D1233126F
:1023400032123102103013390C0A320804630201D0
:10235000130C223308121A1E0832291A4708327940
:102360001A3008320913AD0B1408CD0A1B08A9084E
:102370001AAB0413D9091B08AD101AA1041A4104A1
:102380001A35041A81044132401AC03832041AC482
:102390000832261AEA08321E196F5B201AB01A6D2D
:1023A000480916981A851C41599F01174C020406CA
:0C23B000262C020304043B0607AD31009C
:0400000508000131BD
:00000001FF
