:020000040800F2
:10000000C00900201D3800088D0700088F07000870
:1000100093070008970700089B07000800000000EE
:10002000000000000000000000000000A107000820
:100030009F07000800000000A3070008A5070008AC
:10004000A7070008A9070008AB070008AD070008CC
:10005000AF070008B1070008B3070008B50700089C
:10006000B7070008B9070008BB070008BD0700086C
:10007000BF070008C1070008C3070008C50700083C
:10008000C7070008C9070008CB070008CD0700080C
:10009000CF070008D7070008D9070008DB070008CA
:1000A000090800080B0800080D0800080F080008E0
:1000B00011080008130800081508000817080008B0
:1000C000190800081B0800081D0800081F08000880
:1000D00021080008873C00082308000825080008BC
:1000E0002B0800082D0800082F0800084108000808
:1000F00043080008450800084708000849080008A8
:100100004B0800084D0800084F0800085108000877
:1001100027080008290800085308000855080008A7
:1001200057080008590800085B0800085D08000827
:1001300000F002F800F05CF80AA090E8000C82449D
:100140008344AAF10107DA4501D100F051F8AFF27A
:10015000090EBAE80F0013F0010F18BFFB1A43F0A5
:1001600001031847083E0000283E00000A444FF0F3
:10017000000C10F8013B13F0070408BF10F8014B06
:100180001D1108BF10F8015B641E05D010F8016B4B
:10019000641E01F8016BF9D113F0080F1EBF10F8AF
:1001A000014BAD1C0C1B09D16D1E58BF01F801CBD2
:1001B000FAD505E014F8016B01F8016B6D1EF9D555
:1001C0009142D6D37047000000230024002500266A
:1001D000103A28BF78C1FBD8520728BF30C148BFAA
:1001E0000B6070471FB503F036FE1FBD10B510BD84
:1001F00003F0F7FD1146FFF7F5FF00F009FA03F0F1
:1002000015FE03B4FFF7F2FF03BC03F01DFE000070
:1002100008B502F089FD4FF4803002F0A4FD02F031
:10022000E1FDF049087008460078012826D1102029
:1002300002F068F9022002F051F9002002F013FEEA
:10024000002002F022FE4FF4806002F015FE4FF411
:10025000E0114FF4803002F0E9FD012002F0F2FDE0
:1002600000BF392002F0A2FD0028FAD0022002F0DF
:10027000ECFD00BF02F0F2FD0828FBD101210807C8
:1002800002F0C5FE012144F20C0002F0B3FE012190
:10029000082002F0AFFE4FF48070ADF8000003209C
:1002A0008DF8020014208DF803006946CE4802F054
:1002B0000DFC0021CD4802F0D8FC08BD10B500208F
:1002C00002F0FCFD0121C80502F0A1FE10BD08B539
:1002D00001213C2002F08EFE4FF6FF70ADF80000C9
:1002E00000208DF803006946C14802F0EFFB694623
:1002F000BD4802F0EBFB6946BE4802F0E7FB6946E9
:10030000BD4802F0E3FB6946BC4802F0DFFB002178
:100310003C2002F06FFE08BD0320B9490860704719
:10032000B848817A19B10521B54A116002E001216E
:10033000B34A1160704708B500214FF0006003F028
:1003400037FA4FF4C06003F0FBF914208DF8000079
:1003500000208DF801008DF8020001208DF80300C7
:10036000684603F0F2F925208DF8000002208DF890
:100370000100684603F0E9F908BD10B504462CB148
:100380004FF48071984802F04EFC04E04FF4807105
:10039000954802F046FC10BD2DE9FF4104460D468C
:1003A00016460020009001900290039001208DF8E5
:1003B00000008DF801408DF803508DF8046001F0C5
:1003C00013FE074609223946684601F011FC09214F
:1003D000012001F022FE012001F0DDFC3C2003F0B1
:1003E000DEFC00208DF801008DF803008DF804007C
:1003F000012001F0F9FD074609223946684601F05F
:10040000F7FB0921012001F008FE012001F0C3FCE7
:10041000BDE8FF812DE9F74F84B005460E46002068
:100420000290039002208DF8080006988DF80900CC
:10043000002F01DA784207B2B8F1000F03DAC8F1F1
:1004400000000FFA80F8474501DD384600E04046DD
:1004500001900A21019890FBF1F004B295FBF4F0B1
:100460004FFA80FA96FBF4F04FFA80FB4FF0000948
:100470001EE00AF0FF008DF80A000BF0FF008DF877
:100480000B00012001F0B0FD05220146009002A8FA
:1004900001F0AEFB0521012001F0BFFD012001F0BC
:1004A0007AFC142003F07BFC09F1010000F0FF0945
:1004B000A145DEDB0AFB1450C0B28DF80A000BFB2D
:1004C0001460C0B28DF80B00012001F08DFD0522F3
:1004D0000146009002A801F08BFB0521012001F0EC
:1004E0009CFD012001F057FC142003F058FC07B0DC
:1004F000BDE8F08F37B500259DF8014000208DF84C
:100500000100E01E0A2806D2DFE800F006080A1003
:10051000161C22282E342EE001252CE002252AE08C
:10052000002213210120FFF737FF3EBD00220421E6
:100530000120FFF731FFF8E7002208210120FFF733
:100540002BFFF2E700223E211046FFF725FFECE7E4
:10055000002229211046FFF71FFFE6E70022522163
:100560001046FFF719FFE0E7002251211046FFF780
:1005700013FFDAE7D9E700BF0A2003F010FC9DF86B
:100580000600312807D1BDF90410BDF902002A4642
:10059000FFF740FF04E0002211461046FFF73AFF44
:1005A00000BFC2E710B5184B18681B1D19681B1D4A
:1005B0001A68A8B1154CA070030A2371030CA3712B
:1005C000030E2372A1720B0A23730B0CA3730B0E81
:1005D0002374A274130A2375130CA375130E2376C8
:1005E00010BD000000000020000C0140000230009F
:1005F00000080140001001400014014000180140B3
:100600000401002040010020E8F7FF1F0C0000203B
:100610000EB50125FFF7FCFD482003F08FFB03F02A
:10062000D9FA2AA003F01BFBFFF785FE2CA003F0EC
:1006300016FBFFF743FE30A003F011FB01F0D6F8E4
:1006400032A003F00CFB03F03FF935A003F007FBE9
:1006500000240DE003F0E5F904461CB135A003F0D9
:10066000FEFA02E037A003F0FAFA642003F097FBE9
:10067000002CEFD003F04DFA044637A003F0EFFA58
:100680001BE039480068052817D11DB137A003F0D9
:10069000E6FA0025684603F016FA04466CB936A05F
:1006A00003F0DDFA694638A003F0FAFA0BA003F074
:1006B000D6FA9DE80700FFF71DFFE2E700E0401EC5
:1006C0000028FCD1704700BFFEE700005379737427
:1006D000656D20636F6D706C657465640A00000061
:1006E000496E746572727570747320636F6D706C8F
:1006F000657465640A000000555342436C6F636B78
:1007000020636F6D706C657465640A005553425FB9
:10071000496E697420636F6D706C657465640A005E
:100720007468697320697320322E344720696E69BA
:10073000740A0000636F6E6E656374206F6B200A2D
:1007400000000000636F6E6E656374206661696C03
:100750006564200D0A000000456E746572205265C4
:10076000764D6F64650A000004010020636F6E6EB1
:100770006563746564000000726563656976652071
:10078000446174613A00000025580000704700BFC2
:10079000FEE700BFFEE700BFFEE700BFFEE77047D1
:1007A0007047704770477047704770477047704791
:1007B0007047704770477047704770477047704781
:1007C000704770477047704770477047704710B563
:1007D00000F052F810BD7047704710B520A003F02C
:1007E0003EFA4FF4807001F05FFE60B11F48006870
:1007F000407A10F0200F02D0012000F036FA4FF4BA
:10080000807001F062FE10BD7047704770477047FE
:100810007047704770477047704770477047704720
:10082000704770477047704770477047704710B502
:100830000FA003F014FA4FF4802001F046FE10BD23
:1008400070477047704770477047704770477047F0
:100850007047704770477047704770477047000097
:1008600045584954395F350A000000001401002042
:1008700057616B6555500A0010B537480068374915
:1008800008800846008800F48060354909880842DD
:1008900006D04FF6FF30304908603249486880473B
:1008A0002E48008800F400502D490988084203D0E2
:1008B0004DF6FF70284908602848008800F48050F1
:1008C00027490988084206D04EF6FF702249086081
:1008D000002000F0CAF92148008800F40060204997
:1008E000098808420CD02048007810B100F09DF92A
:1008F00002E0022000F0B9F94FF2FF7016490860DB
:100900001648008800F4007015490988084208D08C
:100910004FF6FF501049086014480078401C1349F6
:1009200008700E48008800F480700D49098808425C
:1009300006D04FF6FF6008490860072000F095F9DF
:100940000648008800F4004005490988084201D0A3
:1009500000F06AFF10BD0000445C0040640000200D
:100960001E0100206C00002008010020280000204B
:1009700010B583A003F073F9FFF714FE002084493B
:100980000968887200F028F90020824908604FF455
:100990003F4081490880084600887E49091F086059
:1009A00000207E4908607EA003F059F910BD10B503
:1009B000002077490968887275490968C8727D48BE
:1009C000C079734909684872002001F05BF94FF45F
:1009D0000071002001F06EF91021002001F080F973
:1009E0001821002001F0F2FA5821002001F0E1FA6C
:1009F000002001F010FA704890F82C10002001F04F
:100A000033FB002001F0D9F94FF4C061012001F05F
:100A100051F94FF48071012001F0CBFA042101203B
:100A200001F0FBFA0021012001F073F920210120DF
:100A300001F056F9012059490860002000F04EFEEF
:100A400010BD5E48817A11B10521544A116070478A
:100A5000042052490860704770477047014629B921
:100A600001204B4A12681082002070475448FCE76E
:100A700010B504465349204600F01FFB10BD10B5C9
:100A800004465149204600F018FB10BD70B50446DD
:100A90000025062C1AD13E480068007800F07F003F
:100AA000012813D13A480068407978B9384800687D
:100AB0008078222802D1AFF2390512E0344800686C
:100AC000807821280DD1AFF257050AE03048006840
:100AD000007800F07F00212803D1032C01D1AFF270
:100AE00083050DB9022070BD294800688561002189
:100AF0002748006841820020A8470020F3E72448E7
:100B00000068C1782E4801600020704700B5024699
:100B10001F480068007800F07F00212804D10B2ACC
:100B200002D1FFF7ECFF00BD0220FCE710B5044640
:100B30002649204600F0C1FA10BD10B504462449EC
:100B4000204600F0BAFA10BD70B50546104800689E
:100B5000C478042C01DD002070BD1E4800EBC401E8
:100B6000284600F0AAFAF7E70246002901DD022034
:100B70007047002A01DD0220FAE70020F8E70000B4
:100B80004A6F79737469636B5F696E69740A0000F8
:100B900014010020445C00401E01002004010020DC
:100BA0004A6F79737469636B5F696E69745F6F759F
:100BB000740A0000763E00086C000020400100200E
:100BC00000010020D8000020D0000020C00000203C
:100BD000C8000020E000002010B50120FFF7CDFB89
:100BE00001244C48046000204B49088008460088D6
:100BF000484908600020091D08604FF4E05046494C
:100C000008800846008843490860002010BD10B5E0
:100C10000120404908600020091D0860FFF7ADFB76
:100C200003203C490860002010BD10B53948006819
:100C300084B244F0080437480460006884B244F089
:100C4000040434480460FFF767FB10BD10B5314859
:100C5000006884B224F004042E480460FFF760FBAF
:100C60004FF43F402B49086010BD70B50546072D75
:100C700001D02A48057029480078082841D2DFE8C9
:100C800000F0040A1016212E4142FFF7DFFF062074
:100C9000224908703BE0FFF7D9FF04201F49087084
:100CA00035E002201D494870032008702FE01B48E2
:100CB0004078401E194948700846407808B9042019
:100CC000087024E01348006884B244F0100411480E
:100CD00004600520114908700A20487017E00F4889
:100CE0004078401E0D4948700846407840B9094890
:100CF000006884B224F010040648046006200870DE
:100D000005E000BF00BF06200449087000BF00BF17
:100D100070BD0000405C00401E0100200901002061
:100D200010B504462CB90120FE490968088200204C
:100D300010BDFD49096808688047FA4800680A3014
:100D4000F6E710B5F7480068C078F8494978884256
:100D500013DCF4480068807878B9F248006880882D
:100D600058B9F0480068C078EE4909688872EE49C1
:100D7000096848688047002010BD0220FCE710B5D4
:100D800004462CB90120E74909680882002010BDFB
:100D9000E549096888688047E24800680C30F6E752
:100DA00010B5E04B1B68D978DE4B1B685879E04BD7
:100DB0001B689A6990470446DA480068807AE8B16F
:100DC0003CB9D8480068007918B9D64800688078DE
:100DD00008B1022010BD8CB9D3490968C8688047A2
:100DE000D04800684079CF490968C872CD4800688A
:100DF000C078CC49096808730020EBE70220E9E7D6
:100E000010B504462CB90220C649096808820020A2
:100E100010BD0020C7490880C2480068007810F063
:100E20007F0F1CD1BF490968487A10F0200F05D008
:100E3000C049097841F00201BE4A117010F0400F1C
:100E400006D0BC49097801F0FE01BA4A117005E0EC
:100E5000B849097841F00101B64A117036E0B1484D
:100E60000068007800F07F00012801D1B148CFE789
:100E7000AC480068007800F07F00022824D1A94A1D
:100E80001268517901F00F0011F0800F0DD0AA4ABD
:100E900052F8202002F03002102A14D1A54A12780C
:100EA00042F00102A34B1A700DE0A34A52F8202031
:100EB00002F44052B2F5805F05D19E4A127842F0AA
:100EC00001029C4B1A7001E00020A1E796490968D5
:100ED0000869804797489BE72DE9F04791480068EB
:100EE000007800F07F08B8F1000F0AD18D48006843
:100EF000407A00F0DF008B49096848720020BDE8A5
:100F0000F087B8F1020F78D186480068408818B998
:100F100084480068007908B10220F0E7DFF80C92FD
:100F200080480068477927F080052C467D48006896
:100F3000407910F0800F05D07F4850F8240000F071
:100F4000300604E07C4850F8240000F4405699F83C
:100F50000000A84204D91EB172480068807A08B91E
:100F60000220CCE717F0800F0ED0734850F8240011
:100F700000F03000102839D1E0B200F0EEFF30214F
:100F8000E0B200F0ADFE31E06B4850F8240000F410
:100F90004050B0F5805F29D1ACB9684890F82C106A
:100FA000E0B201F061F8644951F8241089B24BF6BF
:100FB0008F7201EA020080F4805080F400505E4994
:100FC00041F8240012E0E0B200F0B1FF5A4951F8B4
:100FD000241089B24BF68F7201EA020080F480502F
:100FE00080F40050544941F8240000BF4E4909687C
:100FF00048698047002082E7FFE700BF02207EE7C4
:101000002DE9F04147480068467926F080073C46C4
:1010100044480068407910F0800F05D0464850F8E9
:10102000240000F0300504E0434850F8240000F4A8
:1010300040553E480078A04208D93A4800684088A8
:1010400020B91DB137480068807A10B90220BDE888
:10105000F08116F0800F0DD0374951F8241089B275
:1010600048F6BF7201EA020080F01000324941F8F0
:1010700024000DE0304951F8241089B24BF68F72EC
:1010800001EA020080F480502B4941F8240000BF9F
:1010900025490968886980470020D8E710B52148AC
:1010A0000068407A40F020001E49096848721E49D5
:1010B0000968C8698047002010BD10B5024619486C
:1010C0000068438A32B98888C01A164C2468208286
:1010D000002010BD08681844FBE72DE9F0411148D5
:1010E000006800F110042688A068C0B1BEB1A588D0
:1010F000B54200D93546A8B2A1688847074620887E
:10110000401B2080608828446080002000F078FF29
:101110008046AAB24146384600F084FD00BF2088D0
:10112000C8B10DE01401002020010020680000205B
:10113000180100200E010020005C00406C0000201F
:101140004FF44050FC4908800021084600F065FF3C
:101150003020FA4908802088A188884204DB0320D7
:10116000F7490968087218E02088002804DD052086
:10117000F3490968087210E0208870B90620F04928
:10118000096808720021EF48006880B2801CEE4AAE
:1011900042F810103020E9490880BDE8F0812DE9BF
:1011A000F047E748006800F110052E88E448006821
:1011B000077AD6B9042F18D1E448007801280FD156
:1011C0000021E048006880B2801CDF4A42F810101D
:1011D0003020DA49088000BF0020DC49087003E0B5
:1011E00007271020D549088027E0AC88A64201D8FF
:1011F000042000E002200746B44200D93446A0B2E1
:10120000A96888478046002000F0EEFE8146A2B221
:101210004946404600F0ECFCA1B2002000F0FDFE83
:101220002888001B28806888204468803020C349B3
:1012300008800002C049088000BFC14909680F72D8
:10124000BDE8F08770B50226BD4800684478BC4808
:101250000068007810F07F0F4AD1092C03D1FFF706
:1012600070FD064665E0052C14D1B5480068C078CD
:101270007F280BDCB2480068807838B9B048006835
:10128000808818B9AE480068807A08B108256BE0FC
:1012900000264EE0032C14D1A9480068C07801282C
:1012A0000DD1A7480068808848B9A5480068407AF1
:1012B00010F0200F03D0FFF7F1FE064639E00226BA
:1012C00037E0012C35D19E480068C07801280DD147
:1012D0009B480068808848B999480068407A10F0B7
:1012E000200F03D0FFF7F8FD064622E0022620E09B
:1012F00093480068007800F07F00012805D10B2C8E
:1013000017D1FFF74DFD064613E08D4800680078C1
:1013100000F07F0002280BD1012C03D1FFF7DCFD88
:10132000064606E0032C04D1FFF76AFE064600E0FD
:1013300002264EB1864800684169E0B288470646F9
:10134000032E01D109250FE00EB108250CE006257A
:1013500000217C48006880B2801C7B4A42F8101053
:1013600030207649088000BF754909680D7270BD4C
:101370002DE9F05F7248006845780027BA46062DCF
:101380001AD16F480068007810F07F0F13D16C49B4
:1013900009688878012803D16D490968CF690AE096
:1013A000022803D16A4909680F6A04E0032802D1C0
:1013B000674909684F6A97E0002D65D16048006869
:1013C0004088002860D15E480068C08802285BD150
:1013D0005B4800680079002856D1594800680078B9
:1013E00010F07F0F06D156480068808810B9AFF220
:1013F000EF5779E052480068007800F07F0001283C
:1014000011D14F4909684879514909688A69002111
:101410009047002868D14A480068807A002863D045
:10142000AFF2236760E046480068007800F07F0074
:10143000022859D142480068407900F00F06404820
:101440000068407900F070093D480068407910F06C
:10145000800F06D03B48503850F8260000F0300886
:1014600005E03848503850F8260000F44058394814
:101470000078B04238D9B9F1000F35D1B8F1000F7A
:1014800032D0AFF283672FE0082D08D12C480068D6
:10149000007810F07F0F27D1AFF27B7724E00A2D80
:1014A00022D127480068007800F07F0001281BD176
:1014B00023480068807AB8B121480068408898B90C
:1014C0001F480068007978B91D480068C088012865
:1014D0000AD11B49096848791D4909688A690021B0
:1014E000904708B9AFF2697757B115480068A0F87E
:1014F00012A01348006887610020B84700240FE05D
:101500000F4A12685078124A1268116988470446D7
:10151000032C05D109200A4909680872BDE8F09F2B
:1015200007480068008AA0F57F41FF3914D10920DF
:10153000034909680872F1E7240100202601002010
:1015400014010020505C0040006000400C010020AD
:101550001801002068000020022C03D09948006880
:10156000008A20B90820974909680872D6E795488B
:101570000068007810F0800F3BD092480068B0F807
:1015800006B090480068008A584504D98D4909681A
:10159000A1F810B023E08B480068008A89490968E7
:1015A000C98888421BDA87480068008A864909682A
:1015B00091F82C10884203DA0020844908700EE06C
:1015C00080480068008A8049096891F82C1090FBD7
:1015D000F1F201FB120010B901207C4908707A4831
:1015E000006890F82C10774800688182FFF7D7FDDB
:1015F00006E00320734909680872000374490880F3
:1016000000BF8BE710B5734890F82C10002000F055
:101610002BFD6C480068007A082805D140026C490F
:10162000088010206C49088066480068007A092804
:1016300001D1012010BD0020FCE708B56748006813
:1016400080B2001D664951F8100080B201EB4000E5
:1016500000905C480068007A09282FD00098007834
:101660005849096808700098401C0090009800785C
:101670005449096848700098401C00900098801CEC
:101680000090009931F8020B009100F08BFE4D495B
:10169000096848800098801C0090009931F8020B7E
:1016A000009100F07FFE4749096888800098801CFF
:1016B00000900098008843490968C880012041498A
:1016C000096808723F480068C08810B9FFF7BAFD82
:1016D00001E0FFF74DFEFFF795FF08BD30B501466D
:1016E000404B1A78002010E0C3B23C4C503C54F8F8
:1016F00023309BB248F68F742340C4B22343C4B254
:10170000364D503D45F82430401C9042ECD341F01A
:101710008003324C241F236030BD10B52948006877
:10172000047A022C01D0042C05D1FFF738FD25489E
:101730000068047A1CE0062C19D122480068407821
:1017400005280ED11F480068007810F07F0F08D1DF
:101750001C490968C878FFF7C1FF23490968086A6E
:1017600080471949096888688047082400E00824F0
:10177000144909680C72FFF745FF10BD10B51148F8
:101780000068047A032C01D0052C05D1FFF7A5FCD5
:101790000C480068047A0EE0072C05D10A49096854
:1017A000C8688047082406E0022C01D0042C01D12F
:1017B000082400E00824034909680C72FFF722FF9F
:1017C00010BD704714010020180100200C010020FA
:1017D000240100206C00002026010020505C004005
:1017E00000600040680000202001002010B508487B
:1017F000084908600220096808720748074908601C
:10180000074808490860054909680868804710BD0D
:1018100040010020140100206C000020180100206D
:101820009C0000202001002010B5002476E147F63E
:10183000FF70E8490860E848008800F00F00E749B9
:1018400008700846007800287ED1E24844380068D5
:1018500000F44050E2490880DE484438006800F057
:101860003000E0490880DB494439096889B24BF609
:101870008F7201EA020080F40050D64944390860B2
:10188000096889B248F6BF7201EA020080F02000C0
:10189000D04944390860D048008810F0100F3BD17F
:1018A0000846006880B248F60F710840C9494439BB
:1018B0000860FFF732FFC7494439096889B24BF61F
:1018C0008F7201EA0200C649098811F4805F01D0D5
:1018D00080F48050C249098811F4005F01D080F47F
:1018E0000050BC4944390860096889B248F6BF72A3
:1018F00001EA0200BB49098811F0100F01D080F005
:101900001000B849098811F0200F01D080F02000A4
:10191000B0494439086010BDAE484438006884B20C
:1019200014F0800F3ED0AB484438006880B248F6CF
:101930000F710840A74944390860FFF7EEFEA5493A
:101940004439096889B200E0AEE04BF68F7201EAD3
:101950000200A349098811F4805F01D080F480500F
:101960009F49098811F4005F01D080F40050994923
:1019700044390860096889B248F6BF7201EA02007A
:101980009849098811F0100F01D080F01000954996
:10199000098811F0200F01D080F020008D494439D2
:1019A0000860B8E714F4006F3DD08A4844380068F6
:1019B000C0F30E0048F68F7108408649443908602C
:1019C000FFF73BFE83494439096889B24BF68F72B1
:1019D00001EA02008249098811F4805F01D080F495
:1019E00080507F49098811F4005F01D080F40050D5
:1019F000784944390860096889B248F6BF7201EA3B
:101A000002007849098811F0100F01D080F0100011
:101A10007449098811F0200F01D080F020006D4931
:101A20004439086077E714F4004F77D069484438A8
:101A30000068C0F30E0048F68F71084065494439CC
:101A40000860FFF79BFE63494439096889B24BF689
:101A50008F7201EA02006249098811F4805F01D0A7
:101A600080F480505E49098811F4005F01D080F451
:101A70000050584944390860096889B248F6BF7275
:101A800001EA02005749098811F0100F01D080F0D7
:101A900010005449098811F0200F01D080F0200077
:101AA0004C494439086036E74C4800784949443984
:101AB00051F8200084B214F4004F15D04748007844
:101AC00051F82000C0F30E0048F68F7108404349DA
:101AD0000978404A443A42F8210040490978491EB1
:101AE000414A52F82100804714F0800F16D03B483D
:101AF00000783849443951F8200080B248F60F7117
:101B0000084036490978334A443A42F821003349BB
:101B10000978491E354A52F8210080472D4800684F
:101B200080B22D49088010F4004F7FF480AE00BFD2
:101B3000F1E610B5002444E047F6FF70254908603F
:101B40002548008800F00F002449087008460078F6
:101B50002049443951F8200084B214F4004F16D0C3
:101B60001E48007851F82000C0F30E0048F68F712F
:101B700008401A490978174A443A42F8210017499F
:101B80000978491E184A52F82100804719E014F0DC
:101B9000800F16D0114800780E49443951F82000C2
:101BA00080B248F60F7108400C490978094A443A56
:101BB00042F8210009490978491E0C4A52F82100CF
:101BC00080470448006880B20349088010F4004F41
:101BD000B2D110BD445C0040640000201001002020
:101BE0002401002026010020480000202C000020B5
:101BF000F0B5144604F1010C4FEA6C07DFF844C05D
:101C00000CEB41033D460AE00678401C90F800C00A
:101C100046EA0C2223F8022B9B1C401C6D1E002D53
:101C2000F2D1F0BDF0B5561C7510064E06EB41041E
:101C30002B4604E080CC20F8017B401C5B1E002B6F
:101C4000F8D1F0BD00600040F94908607047F848DD
:101C5000006880B27047F649091D08607047F44873
:101C6000001D006880B27047F1480830006880B2FB
:101C70007047EF490C3108607047ED480C30006840
:101C800080B270474FF6F8710140E94A1032116096
:101C90007047E7481030006880B27047E44A403A25
:101CA00042F8201070470146E148403850F82100C2
:101CB00080B27047DE4A403A52F8202092B248F68D
:101CC0008F131A400A43DA4B403B43F820207047F9
:101CD0000146D748403850F8210000F4C0607047F2
:101CE00010B5D34B403B53F820309BB248F6BF743D
:101CF00003EA040211F0100F01D082F0100211F07B
:101D0000200F01D082F02002C94B403B43F8202035
:101D100010BD10B5C64B403B53F820309BB24BF67C
:101D20008F7403EA040211F4805F01D082F48052C0
:101D300011F4005F01D082F40052BD4B403B43F8E8
:101D4000202010BD10B502460B461046FFF7ABFF32
:101D50000446012B06D124F48050B549403941F89E
:101D6000220007E0022B05D124F01000B0494039D1
:101D700041F8220010BD0146AD48403850F821001E
:101D800000F0300070470146A948403850F8210063
:101D900000F440507047A64A403A52F8202092B2D0
:101DA00048F6BF7302EA030181F0100181F02001BF
:101DB0009F4A403A42F8201070479D4A403A52F8F4
:101DC000202092B24BF68F7302EA030181F4805116
:101DD00081F40051964A403A42F8201070479449E5
:101DE000403951F8201089B241F4807148F68F7261
:101DF00011408F4A403A42F8201070478C494039D0
:101E000051F8201089B248F68F621140884A403A52
:101E100042F8201070478649403951F8201089B2A5
:101E200048F68F621140824A403A42F820107047CB
:101E30007F49403951F8201089B241F4807148F649
:101E40008F7211407A4A403A42F820107047784920
:101E5000403951F8201089B241F4807148F68F72F0
:101E60001140734A403A42F8201070477049403997
:101E700051F8201089B248F68F6211406C4A403AFE
:101E800042F82010704701466948403850F8210058
:101E900000F03000102801D1012070470020FCE73D
:101EA00001466348403850F8210000F44050B0F536
:101EB000805F01D1012070470020FCE75C49403978
:101EC00051F82010C1F30E0148F68F721140584AA4
:101ED000403A42F8201070475549403951F82010D7
:101EE00089B248F60F721140514A403A42F8201028
:101EF00070474F49403951F8201089B248F68F7227
:101F0000114041F480414A4A403A42F8201070475B
:101F10004749403951F8201089B248F68F72114074
:101F200041F04001424A403A42F82010704740498F
:101F3000403951F8201011F4804F0DD03C49403900
:101F400051F8201089B248F68F72114041F4804157
:101F5000374A403A42F8201070473549403951F825
:101F6000201011F0400F0DD03149403951F82010A8
:101F700089B248F68F72114041F040012C4A403A34
:101F800042F8201070472A4A403A52F8202092B274
:101F900048F68F731A400A43254B403B43F82020F4
:101FA000704701462248403850F8210000F00F00E9
:101FB000704710B54A1053001D4A1032126892B291
:101FC00002EBC0021B4C44F8123010BD10B54A1091
:101FD0005300174A1032126892B202EBC002121D6F
:101FE000144C44F8123010BD0146114810300068FE
:101FF00080B200EBC1000F4A52F8100080B2704767
:1020000001460B481030006880B200EBC100001D93
:10201000084A52F8100080B27047054A1032126820
:1020200092B202EBC002921C024B43F812107047AE
:10203000405C00400060004002463E290BDD481134
:1020400011F01F0F01D1431E98B24FF4004343EA31
:102050008023136007E0481011F0010F01D0431CEA
:1020600098B283021360704710B50246D0480068EA
:1020700080B200EBC200801DCE4C04EB40033E2931
:102080000BDD481111F01F0F01D1441EA0B24FF417
:10209000004444EA80241C6007E0481011F0010F5E
:1020A00001D0441CA0B284021C6010BD0146C0488F
:1020B000006880B200EBC100801CBE4A52F81000DC
:1020C000C0F3090070470146B948006880B200EBD0
:1020D000C100801DB74A52F81000C0F309007047D4
:1020E00030B54B105C00B24B1B689BB203EBC003D6
:1020F000B04D45F8134053105C00AD4B1B689BB2CC
:1021000003EBC0031B1D45F8134030BD10B54A104A
:102110005300A74A126892B202EBC002A54C44F8E1
:10212000123010BD10B54A105300A14A126892B285
:1021300002EBC002121D9F4C44F8123010BD014644
:102140009B48006880B200EBC1009A4A52F8100028
:1021500080B2704701469648006880B200EBC1002B
:10216000001D944A52F8100080B2704730B50B46FB
:10217000012B1FD18E49096889B201EBC001891C6E
:102180008C4D05EB41043E2A0BDD511112F01F0F5F
:1021900001D14D1EA9B24FF4004545EA81252560C5
:1021A00007E0511012F0010F01D04D1CA9B28D02B1
:1021B00025600AE0022B08D17D49096889B201EB4C
:1021C000C001891C7B4C44F81120012B1FD1784998
:1021D000096889B201EBC001891D764D05EB410408
:1021E0003E2A0BDD511112F01F0F01D14D1EA9B275
:1021F0004FF4004545EA8125256007E0511012F0B3
:10220000010F01D04D1CA9B28D0225600AE0022BFE
:1022100008D16749096889B201EBC001891D654C85
:1022200044F8112030BD30B5034601291FD1604864
:10223000006880B200EBC300801C5E4D05EB4004DB
:102240003E2A0BDD501112F01F0F01D1451EA8B21E
:102250004FF4004545EA8025256007E0501012F054
:10226000010F01D0451CA8B2850225600AE00229B1
:1022700008D14F48006880B200EBC300801C4D4C71
:1022800044F8102030BD30B5034601291FD148481D
:10229000006880B200EBC300801D464D05EB400492
:1022A0003E2A0BDD501112F01F0F01D1451EA8B2BE
:1022B0004FF4004545EA8025256007E0501012F0F4
:1022C000010F01D0451CA8B2850225600AE0022951
:1022D00008D13748006880B200EBC300801D354C40
:1022E00044F8102030BD01463148006880B200EB50
:1022F000C100801C2F4A52F81000C0F3090070473B
:1023000001462B48006880B200EBC100801D294ABD
:1023100052F81000C0F309007047014624480068D5
:1023200080B200EBC100801D224A52F8100010F468
:102330007C4F01D0012070471D48006880B200EB3F
:10234000C100801C1B4A52F810008005800D01D08E
:102350000220F0E70020EEE701290ED1144A503A9E
:1023600052F8202092B248F68F731A4042F0400291
:102370000F4B503B43F820200FE002290DD10C4AAF
:10238000503A52F8202092B248F68F731A4042F425
:102390008042074B503B43F820207047024641EAF9
:1023A000022070470146CAB20B1243EA022070476E
:1023B000505C004000600040002046490860091D54
:1023C0000860091D0860091D08604348414914312F
:1023D00008607047817900293ED03E49096802684B
:1023E00091433C4A1160111D096802689143394AC2
:1023F000121D11600179121F895802681143027978
:10240000344BD15033490831096802689143314A4D
:1024100008321160111D0968026891432D4A0C327F
:102420001160417910290ED1111F0968026811430A
:10243000284A08321160111D096802681143254AB3
:102440000C32116010E04179224A89580268114328
:102450004279204BD15007E001791E4A8958026821
:10246000914302791B4BD1507047002101600171EB
:102470000C214171002181717047164910310968A2
:102480000143144A10321160704701460020114A7E
:10249000143212680A4201D0012000E00020704787
:1024A0000C49143108607047014600200022094B96
:1024B0001B6803EA0102074B14331B680B4202D06E
:1024C0000AB1012000E00020704702491431086081
:1024D0007047000000040140FFFF07000146002094
:1024E000F84A106800F03800084310607047F5495A
:1024F000096821F00801F34A116011460968014397
:1025000011607047EF49096821F01001ED4A116030
:1025100011460968014311607047EB48E94948607A
:10252000EA4848607047E748006940F08000E549A4
:10253000086170470420E349C96801F001010129DD
:1025400001D101200EE0DF49C96811F0040F01D06C
:10255000022007E0DB49C96811F0100F01D0032009
:1025600000E0042070470020FF2000E0401E00280B
:10257000FCD1704770B504460425FFF7DBFF054624
:1025800005E0FFF7F0FFFFF7D5FF0546641E012DBC
:1025900001D1002CF5D104B90525284670BD70B5D0
:1025A0000546042440F6FF70FFF7E4FF0446042CC0
:1025B00019D1C448006940F00200C24908610846C8
:1025C0004561006940F04000086140F6FF70FFF788
:1025D000D1FF0446012C06D0BA48006941F6FD71CE
:1025E0000840B8490861204670BD10B5042440F683
:1025F000FF70FFF7BFFF0446042C18D1B1480069F3
:1026000040F00400AF4908610846006940F040000E
:10261000086140F6FF70FFF7ADFF0446012C06D0BD
:10262000A848006941F6FB710840A64908612046A8
:1026300010BD10B5042440F6FF70FFF79BFF044661
:10264000042C3BD1A0489F498860A0488860084678
:10265000006940F0200008610846006940F0400031
:10266000086140F6FF70FFF785FF0446042C1CD17B
:102670009448006941F6DF710840924908610846B4
:10268000006940F010000861A520914908800F20E2
:10269000FFF770FF0446012C10D08A48006941F60C
:1026A000EF7108408749086108E0012C06D0854891
:1026B000006941F6EF71084082490861204610BD6B
:1026C00070B505460E4604240F20FFF753FF04465D
:1026D000042C25D17B48006940F00100794908614C
:1026E0002E800F20FFF746FF0446042C0FD1300C3C
:1026F00068800F20FFF73EFF0446012C10D0714880
:10270000006941F6FE7108406E49086108E0012C3D
:1027100006D06C48006941F6FE71084069490861BD
:10272000204670BD70B505460E4604240F20FFF705
:1027300021FF0446042C13D16248006940F00100D7
:10274000604908612E800F20FFF714FF0446012C1A
:1027500006D05C48006941F6FE710840594908619D
:10276000204670BD70B505460E4604240F20FFF7C5
:1027700001FF0446042C17D153485249886053483E
:1027800088600846006940F0100008612E800F2024
:10279000FFF7F0FE0446012C06D04A48006941F6D6
:1027A000EF71084047490861204670BD2DE9F047A8
:1027B00004464FF6FF763746B046B1460425E4435B
:1027C000E6B2C4F30727C4F307484FEA14690F20A1
:1027D000FFF7D0FE0546042D40D13B4839498860BB
:1027E0003A4888600846006940F010000861FF2EF2
:1027F00006D03748083006800F20FFF7BBFE05469D
:10280000042D08D1FF2F06D031480A3007800F2051
:10281000FFF7B0FE0546042D0AD1B8F1FF0F07D02F
:102820002B480C30A0F800800F20FFF7A3FE0546D0
:10283000042D0AD1B9F1FF0F07D025480E30A0F8BA
:1028400000900F20FFF796FE0546012D06D01D488B
:10285000006941F6EF7108401A4908612846BDE851
:10286000F08770B50546042440F6FF70FFF782FE3E
:102870000446042C49D114481249886013488860E2
:102880000846006940F0200008610846006940F0F1
:102890004000086140F6FF70FFF76CFE0446042C10
:1028A0002AD10848006941F6DF71084005490861EE
:1028B0000846006940F0100008615DB1002004493D
:1028C00008800AE00020024023016745AB89EFCD74
:1028D00000F8FF1FA5204549088040F6FF70FFF76C
:1028E00049FE0446012C10D04148006941F6EF71C1
:1028F00008403F49086108E0012C06D03C480069C7
:1029000041F6DF7108403A490861204670BD2DE963
:10291000F04107460D46164604243648344988607F
:10292000354888600F20FFF725FE0446042C1AD195
:102930002F48006940F010002D49086147EA050062
:10294000304340F0F8002949891C08800F20FFF728
:1029500011FE0446012C06D02548006941F6EF71AE
:102960000840234908612046BDE8F0812048C0693D
:10297000800870471E48006A704700201C49C969DA
:1029800011F0020F01D0012000E00020704700206C
:102990001749096811F0200F01D0012000E0002044
:1029A000704729B1124A12690243114B1A6104E0BF
:1029B0000F4A126982430E4B1A617047014600208C
:1029C000012908D10A4AD26912F0010F01D0012071
:1029D00008E0002006E0064AD2680A4201D0012041
:1029E00000E0002070470249C860704700F8FF1FF0
:1029F0000020024023016745AB89EFCD10B50446A6
:102A0000C549601A8C422FD009DCC448201810D068
:102A1000B0F5806F16D0B0F5006F4AD11BE0B0F56D
:102A2000806F2AD0B0F5006F30D0B0F5406F40D144
:102A300035E00121042000F0F7FA0021042000F025
:102A4000F3FA37E00121082000F0EEFA0021082017
:102A500000F0EAFA2EE00121102000F0E5FA002152
:102A6000102000F0E1FA25E00121202000F0DCFA3E
:102A70000021202000F0D8FA1CE00121402000F0C5
:102A8000D3FA0021402000F0CFFA13E0012180208A
:102A900000F0CAFA0021802000F0C6FA0AE0012105
:102AA000080200F0C1FA00214FF4807000F0BCFA77
:102AB00000E000BF00BF10BD10B50121084600F0C6
:102AC000B3FA0021012000F0AFFA10BD2DE9F0416A
:102AD000024600250026002000230024002791F84C
:102AE00003C00CF00F0591F803C01CF0100F03D0C9
:102AF00091F802C04CEA0505B1F800C01CF0FF0FC8
:102B000031D0146800202BE04FF0010C0CFA00F3D8
:102B1000B1F800C00CEA03069E4220D183004FF0BA
:102B20000F0C0CFA03F7BC4305FA03FC4CEA04044F
:102B300091F803C0BCF1280F06D14FF0010C0CFA3C
:102B400000FCC2F814C00AE091F803C0BCF1480FC1
:102B500005D14FF0010C0CFA00FCC2F810C0401C6B
:102B60000828D1D31460B1F800C0BCF1FF0F34DDE8
:102B7000546800202EE000F1080C4FF0010808FA1C
:102B80000CF3B1F800C00CEA03069E4221D1830089
:102B90004FF00F0C0CFA03F7BC4305FA03FC4CEAA8
:102BA000040491F803C0BCF1280F05D100F1080C12
:102BB00008FA0CF8C2F8148091F803C0BCF1480F71
:102BC00007D100F1080C4FF0010808FA0CF8C2F820
:102BD0001080401C0828CED35460BDE8F0814FF629
:102BE000FF710180022181700421C170704702468B
:102BF000002093680B4201D0012000E000207047C4
:102C00000146886880B2704702460020D3680B42B4
:102C100001D0012000E0002070470146C86880B262
:102C2000704701617047416170470AB1016100E07E
:102C300041617047C16070474FF480320A4382613E
:102C40008161826182698269704702460020344B4B
:102C500018684FF68073184040EA02100843304B62
:102C6000186070472F49C8617047F0B50A460023C5
:102C70000024002100252A4E7168C0F3034583B269
:102C800000F44016B6F5401F08D121F07061244EC3
:102C9000766826F07066224F7E6012E000F480169F
:102CA000B6F5801F06D1032606FA05F4A14341F0CC
:102CB000706106E0460D360103FA06F6B14341F0B5
:102CC000706122B1460D360103FA06F63143144E07
:102CD0007160F0BD30B500228B071C0F0F2303FA83
:102CE00004F20F4B08338C1053F8243093430C4CF0
:102CF00008348D1044F8253023468C1053F82430C6
:102D00008C07240F00FA04F42343054C08348D107B
:102D100044F8253030BD00000014014000F8FEBF2B
:102D20000000014000002042DB48006840F0010044
:102D3000D949086008464068D8490840D6494860E3
:102D400008460068D6490840D3490860084600682C
:102D500020F4802008600846406820F4FE004860A7
:102D6000002088607047CC49096821F48031CA4A44
:102D700011601146096821F480211160B0F5803F8F
:102D800003D0B0F5802F0ED106E0C349096841F4A5
:102D90008031C14A116007E0BF49096841F4A021B0
:102DA000BD4A116000E000BF00BF704710B501468A
:102DB0000022002300204A11012A02D1B64C2368C8
:102DC00006E0022A02D1B44C236A01E0B24C636AE5
:102DD00001F01F02012494401C4201D0012000E0B8
:102DE000002010BD70B500240025002600BF312052
:102DF000FFF7DCFF0646641C16B9B4F5A06FF6D1E8
:102E00003120FFF7D3FF08B1012500E00025284657
:102E100070BD01460020A04A106820F0F80040EA8A
:102E2000C100106070479F4908607047024600204B
:102E3000994B586820F47C1042EA01031843964BE2
:102E40005860704797490866704701460020924ACB
:102E5000506820F003000843506070478E48406877
:102E600000F00C007047014600208B4A506820F0AB
:102E7000F00008435060704701460020864A5068C1
:102E800020F4E06008435060704701460020824A09
:102E9000506820F4605040EAC1005060704729B18A
:102EA0007D4A527A02437C4B5A7206E07A4A527A41
:102EB000C343DBB21A40784B5A7270477A490860B4
:102EC000704701460020744A506820F4404008438F
:102ED000506070470021754A11706F4A82F82010C7
:102EE000012802D0042808D103E001216F4A1170A3
:102EF00004E005216D4A117000E000BF00BF70477B
:102F00006B49086070476449096A0143624A11626B
:102F10007047674944390860704730B50021002286
:102F2000002400235C4D6D6805F00C0121B10429DB
:102F300005D0082923D105E05E4D056022E05D4DF6
:102F400005601FE0544D6D6805F47012022505EB15
:102F50009242514D6D6805F480341CB9564D55436D
:102F600005600BE04C4D6D6815F4003F03D0524DE9
:102F70005543056002E04F4D5543056002E04D4D5D
:102F8000056000BF00BF444D6D6805F0F001090900
:102F90004A4D6B5C0568DD4045603F4D6D6805F44A
:102FA000E061090A454D6B5C4568DD4085603A4D3E
:102FB0006D6805F46051C90A404D6B5C4568DD40A1
:102FC000C560354D6D6805F44041890B3C4D6B5C27
:102FD000C568B5FBF3F5056130BD29B12E4A5269CC
:102FE00002432D4B5A6104E02B4A526982432A4B1B
:102FF0005A61704729B1284A92690243264B9A6167
:1030000004E0254A92698243234B9A61704729B1B3
:10301000214AD2690243204BDA6104E01E4AD26998
:1030200082431D4BDA61704729B11B4AD2680243C3
:10303000194BDA6004E0184AD2688243164BDA6012
:10304000704729B1144A12690243134B1A6104E014
:10305000114A12698243104B1A6170471449403972
:10306000086070470F49C86470470B49C8717047C2
:103070000948406A40F0807007494862704701463D
:103080000020054A92680A4201D0012000E0002099
:103090007047014988727047001002400000FFF835
:1030A000FFFFF6FE00004242D800424220100240DC
:1030B0008004424200127A0000093D0028010020ED
:1030C0003801002010B50446BE4820180FD0B0F5D6
:1030D000806F16D0B0F5784F1DD101210803FFF79E
:1030E000A3FF00214FF48050FFF79EFF14E0012161
:1030F0008803FFF7A6FF00214FF48040FFF7A1FFF0
:103100000AE00121C803FFF79CFF00214FF40040B3
:10311000FFF797FF00E000BF00BF10BD10B5002211
:10312000028802F441520B884C8823438C88234345
:10313000CC8823430C8923434C8923438C89234324
:10314000CC8923431A430280838B4FF2FF742340C0
:1031500083830B8A038210BD2DE9F04786B00546B4
:103160000C464FF0000902274FF000084FF0010A0B
:103170000026A88B4FF240010840A8830220288433
:10318000B5F81C902089022801D100BF2FE0A0884B
:1031900010B94FF0010A01E04FF0020A01A8FFF751
:1031A000BCFEE088B0F5007F0AD1019800EB8000FA
:1031B000400021890902B0FBF1F0401D86B20BE00E
:1031C0004FEA4A1021894843019901EB81014900E6
:1031D000B1FBF0F0401D86B20A20B6FBF0F606F017
:1031E0000108A6EB0800C0F34F074FEA0828022F9A
:1031F00001DBFF2F02DD02274FF0000847EA08003D
:10320000E18808432884208840F4006061880843EE
:10321000A18808436189084340EA0909A5F81C9080
:1032200006B0BDE8F0870021018041808180C18027
:10323000018141818181C181072101827047002183
:10324000018041808180C180022101810021418172
:10325000704721B1028842F04002028004E00288F7
:103260004FF6BF731A400280704721B1828B42F43F
:103270008062828304E0828B4FF6FF331A408283A0
:10328000704770B5002400230C110125A540ABB296
:103290001AB185881D43858004E08588DE43B6B277
:1032A0003540858070BD10B51AB183880B4383808B
:1032B00004E08388CC43A4B22340838010BD818185
:1032C0007047014688897047A1F57E42FF3A04D0D5
:1032D000028842F48072028004E002884FF6FF63A5
:1032E0001A400280704721B1828842F00402828035
:1032F00004E082884FF6FB731A4082807047028890
:103300004FF2FF731A40028002880A43028070471E
:10331000018841F480510180704721B1028842F454
:103320000052028004E002884DF6FF731A400280CA
:10333000704702460020012901D0108B00E0908ADE
:1033400070470146088A7047B1F5804F04D1028862
:1033500042F48042028004E002884BF6FF731A4078
:10336000028070470246002013890B4201D00120E1
:1033700000E000207047CA4302817047F0B5024662
:10338000002000240023002501F00F070126BE4085
:10339000B4B20B1101269E40B3B2968806EA03052B
:1033A0001689264202D00DB1012000E00020F0BDB8
:1033B00010B5002201F00F040123A3409AB2D343B9
:1033C000038110BD00C8FFBF10B50446D949601A7B
:1033D0008C422BD006DCD848201813D0B0F5806F73
:1033E00038D119E0B0F5806F2AD0B0F56C4F31D1EB
:1033F00001218803FFF718FE00214FF48040FFF7FA
:1034000013FE28E001214804FFF71BFE00214FF4C2
:103410000030FFF716FE1EE001218804FFF711FEC1
:1034200000214FF48020FFF70CFE14E00121C804B6
:10343000FFF707FE00214FF40020FFF702FE0AE02D
:1034400001210805FFF7FDFD00214FF48010FFF773
:10345000F8FD00E000BF00BF10BD2DE9F04786B0C9
:1034600005460E460024A24600BF00BF00272F4697
:103470002C8A4CF6FF700440F08804432C82AC89FF
:103480004EF6F3100440B08831890843718908432F
:103490000443AC81AC8A4FF6FF400440B08904433A
:1034A000AC8201A8FFF739FDA448874202D1DDF8BC
:1034B00010A001E0DDF80CA00AEBCA0000EB0A1036
:1034C00031688900B0FBF1F86420B8FBF0F004012A
:1034D0002009642101FB1089322000EB0910B0FBA8
:1034E000F1F000F00F0004432C8106B0BDE8F08736
:1034F0004FF4E131016000218180C18001810C2104
:10350000418100218181704710B502460020108A58
:103510004FF2FF0318400B884C8823438C882343C9
:10352000CC8823431843108210BD002101804180C4
:103530008180C180704721B1828942F4005282812A
:1035400004E082894DF6FF731A4082817047F0B51E
:10355000034600240026002500201846C1F342142B
:1035600001F01F06012707FA06F5012C01D10C30E6
:1035700004E0022C01D1103000E014301AB10768C9
:103580002F43076002E00768AF430760F0BD10B546
:103590001AB1838A0B43838204E0838ACC43A4B2AA
:1035A0002340838210BD028A4FF6F0731A400282D4
:1035B000028A0A430282704782894FF2FF731A40DF
:1035C000828182890A438281704721B1828942F0D7
:1035D0000202828104E082894FF6FD731A408281E3
:1035E0007047028A4FF6DF731A400282028A0A434A
:1035F0000282704721B1028A42F48042028204E0D2
:10360000028A4BF6FF731A4002827047C1F3080228
:103610008280704701468888C0F30800704781891E
:1036200041F0010181817047028BD2B20283028B8B
:1036300042EA012202837047028B02F47F42028336
:10364000028B0A430283704721B1828A42F0200232
:10365000828204E0828A4FF6DF731A4082827047CA
:1036600021B1828A42F01002828204E0828A4FF6FF
:10367000EF731A408282704721B1828A42F00802B9
:10368000828204E0828A4FF6F7731A408282704782
:10369000828A4FF6FB731A408282828A0A438282B0
:1036A000704721B1828A42F00202828204E0828A5B
:1036B0004FF6FD731A40828270470246002013883D
:1036C0000B4201D0012000E000207047CA43028075
:1036D000704770B502460B460024002100250020EB
:1036E000C3F3421503F01F01012606FA01F1012D73
:1036F00002D19689314006E0022D02D1168A31406E
:1037000001E0968A31401C12012606FA04F416885C
:10371000344011B10CB1012000E0002070BD10B5A3
:10372000002200230A1201249440A3B2DC43048047
:1037300010BD0000004C004000BCFFBF003801403D
:1037400031490143314A1160704770B500210023AF
:103750000F22C4780CB32D4C246804F4E064C4F543
:10376000E064210AC1F10403CA40447804FA03F179
:103770008478144021430901254C0678A15504782A
:1037800004F01F050124AC4005786D114FF0E026D0
:1037900006EB8505C5F8004109E0047804F01F0533
:1037A0000124AC401B4D0678761145F8264070BDCB
:1037B000194A0A400243154B1B1F1A60704739B162
:1037C000124A121D12680243104B1B1D1A6006E0BC
:1037D0000E4A121D126882430C4B1B1D1A60704763
:1037E000042808D14FF0E021096941F004014FF0AD
:1037F000E022116107E04FF0E021096921F00401A6
:103800004FF0E022116170470000FA050CED00E076
:1038100000E400E080E100E080FFFF1F0348004774
:1038200003480449044A054B704700003101000871
:10383000C0010020C0090020C0050020C0050020F4
:1038400010B5044600BF0221DC48FFF78BFD0028BD
:10385000F9D02146D948FFF732FD00BF0121D748F2
:10386000FFF780FD0028F9D0D448FFF72AFDC0B249
:1038700010BD70B505460C4600221021D048FFF758
:10388000D4F92846FFF7DCFF06462046FFF7D8FFAD
:1038900001221021CA48FFF7C8F9304670BD70B543
:1038A000044600221021C648FFF7BFF92046FFF763
:1038B000C7FFFF20FFF7C4FF054601221021C048C3
:1038C000FFF7B3F9284670BD00B587B00121052088
:1038D000FFF790FB01210803FFF78CFBE020ADF818
:1038E000180003208DF81A0018208DF81B0006A977
:1038F000B348FFF7EBF80120ADF8180003208DF86E
:103900001A0010208DF81B0006A9AD48FFF7DEF85D
:103910001020ADF8180003208DF81A0010208DF843
:103920001B0006A9A648FFF7D1F80220ADF8180041
:1039300003208DF81A0048208DF81B0006A9A04826
:10394000FFF7C4F8012210219D48FFF76EF900200F
:10395000ADF804004FF48270ADF806000020ADF819
:103960000800ADF80A00ADF80C004FF40070ADF897
:103970000E001020ADF810000020ADF81200072056
:10398000ADF8140001A98D48FFF7C8FB01218B4851
:10399000FFF75FFC07B000BD2DE9F04107460D467B
:1039A0001646002210218648FFF73FF93846FFF7F8
:1039B00047FF8046002405E0FF20FFF741FF285520
:1039C000601CC4B2B442F7DB012210217C48FFF72F
:1039D0002CF94046BDE8F0812DE9F04107460C4640
:1039E0001546002201217648FFF71FF90022102119
:1039F0007348FFF71AF93846FFF722FF8046002682
:103A000005E014F8010BFFF71BFF701CC6B2AE42B5
:103A1000F7DB012210216A48FFF707F94046BDE8AD
:103A2000F0811FB567A103C9CDE90201052202A9F2
:103A30003020FFF7D1FF052269461020FFF7ACFFC9
:103A4000002406E01DF80400A52800D003E0601C57
:103A5000C4B2052CF6DB00BF052C02D0002004B058
:103A600010BD0120FBE770B5054600220121544836
:103A7000FFF7DBF80A222946A020FFF7ADFF01225D
:103A800011464F48FFF7D1F800BF02214C48FFF71D
:103A9000AEF80028F9D10720FFF701FF04462146C0
:103AA0002720FFF7E6FE14F0100F05D0FF21E120DC
:103AB000FFF7DFFE102070BD14F0200F01D0202092
:103AC000F9E7FF20F7E770B50546012211463C48AB
:103AD000FFF7ABF800BF02213948FFF788F800284C
:103AE000F9D10720FFF7DBFE044621462720FFF728
:103AF000C0FE14F0400F0AD00A2229466120FFF7C9
:103B00004BFFFF21E220FFF7B4FE002070BD012033
:103B1000FCE710B5002201212948FFF786F80522AD
:103B20002A492A20FFF758FF01212120FFF7A1FE93
:103B300001212220FFF79DFE01212520FFF799FE9C
:103B40000A213120FFF795FE0F212620FFF791FE75
:103B50000F212020FFF78DFE012010BD10B500229F
:103B600001211748FFF761F8052219493020FFF7B6
:103B700033FF052215492A20FFF72EFF01212120BE
:103B8000FFF777FE01212220FFF773FE1A21242080
:103B9000FFF76FFE01212520FFF76BFE0F21262086
:103BA000FFF767FE0E212020FFF763FE012211467A
:103BB0000348FFF73AF8012010BD00000030014033
:103BC00000080140A5A5A5A5A5000000653F0008C7
:103BD000603F000800B585B0012144F20500FFF701
:103BE00009FA4FF40070ADF8000018208DF80300BA
:103BF00003208DF8020069464E48FEF767FF4FF438
:103C00008060ADF8000004208DF8030003208DF8DB
:103C1000020069464748FEF759FF01A8FFF768FC14
:103C20004FF4E13001900020ADF80800ADF80A0033
:103C3000ADF80C00ADF810000C20ADF80E0001A995
:103C40003D48FFF70AFC01213B48FFF774FC0122C5
:103C500040F225513848FFF77AFC05B000BD10B599
:103C600004460BE014F8011B3348FFF7CFFC00BFFC
:103C700080213148FFF721FD0028F9D02078002865
:103C8000F0D1012010BD08B52B48FFF7C3FCC0B22E
:103C900000906846FFF7E3FF08BD0146012070472A
:103CA00070B506460D4640E03078252831D1707851
:103CB00058282ED12C7824110A2C03DB04F137006C
:103CC000C4B202E004F13000C4B221461A48FFF742
:103CD0009DFC00BF80211848FFF7EFFC0028F9D0B9
:103CE00015F8014B04F00F040A2C03DB04F1370034
:103CF000C4B202E004F13000C4B221460E48FFF71E
:103D000085FC00BF80210C48FFF7D7FC0028F9D0C4
:103D10000BE015F8011B0848FFF778FC00BF802175
:103D20000548FFF7CAFC0028F9D028780028BBD145
:103D3000012070BD00080140003801404FF0E02133
:103D4000096921F004014FF0E0221161C21700EB74
:103D50005272D2101F4B1A70194609784FF47A72BA
:103D600051431D4A1180704701461A4A12784A434E
:103D70004FF0E0235A6100229A6101221A6100BFCC
:103D80004FF0E022106910F0010F02D010F4803FD4
:103D9000F6D000224FF0E0231A619A617047014685
:103DA0000D4A12884A434FF0E0235A6100229A617B
:103DB00001221A6100BF4FF0E022106910F0010FDC
:103DC00002D010F4803FF6D000224FF0E0231A61B9
:103DD0009A6170473C0100203E0100207047704707
:103DE0007047754600F028F8AE4605006946534610
:103DF00020F00700854618B020B5FFF711FDBDE89B
:103E000020404FF000064FF000074FF000084FF041
:103E1000000B21F00701AC46ACE8C009ACE8C009D2
:103E2000ACE8C009ACE8C0098D4670470446AFF362
:103E300000802046FCF7E5F9004870475C0100204F
:103E4000004870476001002001491820ABBEFEE722
:103E500026000200704710B5FFF7F2FF4FF0000197
:103E6000016010BD120100020000004083041057E1
:103E700000020102030109022900010100E03209E8
:103E80000400000203010100092100010001227960
:103E9000000705810310002007050103100020051D
:103EA000010906A1018501050719E029E71500258B
:103EB00001950875018102950175088103950675C4
:103EC00008150025FF0507190029658100250195C2
:103ED00005750105081901290591029501750391E0
:103EE00003C005010902A10185020901A10005091C
:103EF000190129031500250195037501810295011A
:103F00007505810305010930093109381581257FBF
:103F1000750895038106C0C00403090426035300F5
:103F200054004D006900630072006F0065006C0072
:103F300065006300740072006F006E00690063002A
:103F400073001E03530054004D0033003200200064
:103F500055005300420073007400690063006B0059
:103F60003443101001344310100100008C3F00084E
:103F700000000020400100006C010008184000080B
:103F80004001002080080000C8010008C1141A0385
:103F9000531254124D12331232123102113013C324
:103FA000170A320804412302011371091B08AF04E8
:103FB00013590A1B085B041A8D04130D0B1B0869A7
:103FC000041A2D041A3B041A4904415A40701A433A
:103FD000240916581A511C13643E3308121A760825
:103FE00032291A9F0832791A8808320913183F3388
:103FF00008041A1C0832261A4208321E220CB3206A
:104000001A199F01212D010203040438080607082C
:0840100009020406A8000000EB
:0400000508000131BD
:00000001FF
